:020000040800F2
:1000000000000320CD500008E1350008E33500086A
:10001000E5350008E7350008E93500080000000074
:10002000000000000000000000000000EB350008A8
:10003000ED35000800000000EF350008F13500083C
:100040001D5100081D5100081D5100081D510008D8
:100050001D5100081D5100081D5100081D510008C8
:100060001D5100081D5100081D5100081D510008B8
:100070001D5100081D5100081D5100081D510008A8
:100080001D5100081D5100081D5100081D51000898
:10009000F93500081D5100081D5100081D510008C8
:1000A0001D5100081D5100081D5100081D51000878
:1000B0001D5100081D5100081D5100081D51000868
:1000C0001D5100081D5100081D5100081D51000858
:1000D0001D5100081D5100081D5100081D51000848
:1000E0001D5100081D5100081D5100081D51000838
:1000F0001D5100081D5100081D5100081D51000828
:100100001D5100081D5100081D5100081D51000817
:100110001D5100081D5100081D5100081D51000807
:100120001D5100081D5100081D5100081D510008F7
:100130001D5100081D5100081D5100081D510008E7
:100140001D5100081D5100081D5100081D510008D7
:100150001D5100081D5100081D5100081D510008C7
:100160001D5100081D5100081D5100081D510008B7
:100170001D5100081D5100081D510008000000001D
:100180001D5100081D5100081D5100081D51000897
:100190001D5100081D5100081D5100081D51000887
:0C01A00000000000000000001D510008DD
:1001B000024A0349034800F069B900BF000000206B
:1001C00001140008100000200C4B4168994210B542
:1001D000044601D001F014F9A168094B994202D0FC
:1001E000204601F00DF9E168064B994204D0204603
:1001F000BDE8104001F004B910BD00BF6800002048
:10020000D00000203801002008B54B6EDA0702D478
:100210008B899B0501D5002008BD886D00F0BEFBD1
:10022000002008BD08B54B6EDA0702D48B899B0508
:1002300001D5002008BD886D00F0B8FB002008BD86
:100240002DE9F843314C3249DFF8D890DFF8D880F7
:10025000304FC4F83811002504232946082204F140
:100260005C002D4EE360C4E90055C4E90455A56067
:100270006566A56100F0B4FA04F15800C4E90849C4
:10028000C4E90A87266300F081FB2946234B636794
:10029000082204F1C400C4E91A55C4E91E552567B3
:1002A000C4F8CC50C4F8805000F09AFA04F1680306
:1002B00004F1C000C4F88830C4E92398C4E9257665
:1002C00000F064FB164BC4F8DC30294604F5967048
:1002D0000822C4E93455C4E93855C4F8D850C4F8E4
:1002E0003451C4F8E85000F07BFA04F1D003C4E9BB
:1002F0003E87C4F8F49004F59470C4F80061C4F823
:10030000F030BDE8F84300F041BB00BF68000020BA
:10031000B101000851060008750600080900010037
:1003200012000200E905000811060008F8B50646AB
:100330002A4800F033FB2A4BD3F83831002B43D046
:10034000284FD7E90134013B04D524E05A1C04F1BD
:10035000680420D0B4F90C50013B002DF6D1224B9B
:10036000E36004F15800656600F010FB1B4800F0E4
:100370001DFBC4E90155C4E9045508222560A561A7
:10038000294604F15C0000F02BFAC4E90D55C4E9DC
:1003900012552046F8BD3D680DB12F46D1E74FF408
:1003A000D671304600F086FB044680B10423C0E9D4
:1003B00000530C302946A0604FF4D072254600F05F
:1003C0000FFA3C602F46BCE7FFF73AFFB8E7034857
:1003D0003C6000F0EBFA0C233360DAE7C401002044
:1003E00068000020000000200100FFFF10B5044657
:1003F0000B4800F0D3FA236A2BB90A4B0A4AD3F808
:100400003831226223B1BDE81040054800F0CEBA71
:10041000FFF716FFBDE81040014800F0C7BA00BF63
:10042000C401002068000020C9010008014800F054
:10043000B5BA00BFC4010020014800F0B7BA00BF40
:10044000C401002008B5054800F0A8FABDE808403E
:10045000034A0449002000F019B800BFC40100207D
:10046000000000200902000808B5054A05490020DF
:1004700000F00CF8BDE80840034800F097BA00BF50
:100480000000002025020008C40100202DE9F843E7
:100490000746884616464FF00009D6E90154013D4B
:1004A00010D4A389012B08D9B4F90E3001332146A9
:1004B000384602D0C04749EA0009013D6B1C04F1EF
:1004C0006804EED13668002EE7D14846BDE8F883CF
:1004D0000EB400B582B003AB816853F8042B0193CE
:1004E00000F0BAFB02B05DF804EB03B0704700BF48
:1004F0000FB400B5074983B004AB086853F8042B68
:100500008168019300F0A8FB03B05DF804EB04B030
:10051000704700BF0C000020036A2DE9F041846899
:1005200080460E46002B53D0626EB4F90C30D507CE
:1005300001D4980546D5190717D52369ABB1013EFB
:10054000A36816F8015F013BA36025B3002B07DA0F
:10055000A769BB4222462946404617DB0A2D15D023
:1005600023685A1C22601D70EAE72146404600F0CD
:10057000D5F80028E3D04FF0FF35636EDA0702D4D8
:10058000A3899B0518D52846BDE8F08100F076F8D0
:100590000130D5D1EFE7002B08DA22460A21404688
:1005A00000F06CF80130E6D00A25E6E723680A225D
:1005B000591C21601A70F7E7A06D00F0F7F9284682
:1005C000BDE8F081A06D00F0E9F9B4F90C30B2E7B4
:1005D000FFF70CFFA8E700BF024B01461868FFF7C2
:1005E0009BBF00BF0C00002010B50C46B1F90E10E7
:1005F00000F070F9002803DB636D0344636510BDF0
:10060000A38923F48053A38110BD00BF002070474D
:100610002DE9F0410C46B1F90C101F46CB050546FB
:1006200016460BD421F48051A1813B46B4F90E103B
:1006300032462846BDE8F04100F062B9B4F90E1028
:100640000223002200F030F9B4F90C10EAE700BFF1
:1006500010B50C46B1F90E1000F026F9B4F90C30C3
:10066000421C0EBF23F4805343F480536065A38182
:1006700010BD00BFB1F90E1000F004B9F8B50D4679
:100680001446064610B1036A002B37D0A389A2692D
:10069000A2601A0719D52369BBB122686169D31A10
:1006A000EDB299422F4620DD0133A1680139A160E6
:1006B000511C2160157062699A420DD0A389DB0735
:1006C00001D50A2D08D03846F8BD2146304600F045
:1006D00025F838B92369E0E72146304600F090FE5E
:1006E0000028F0D04FF0FF37EDE72146304600F00C
:1006F00087FE0028F6D122680123D6E7FFF776FEB1
:10070000C4E700BF10B4044C03460A4620685DF8F5
:10071000044B1946FFF7B2BF0C00002038B52F4B31
:100720001B6805460C4613B11A6A002A4BD0B4F96F
:100730000C3018071CD5226922B313F0010107D031
:10074000616900204942A060A1613AB1002038BD32
:10075000980758BF6169A160002AF7D1190658BFF0
:100760001046F4D543F04003A3814FF0FF3038BD6D
:10077000D9062CD55A0712D4226943F00803A38165
:10078000002ADAD103F42071B1F5007FD5D02146DB
:10079000284600F0F5FFB4F90C302269CDE7616B13
:1007A00051B104F14402914204D0284600F000F90E
:1007B000B4F90C300022626322690021C4E90021EF
:1007C00023F02403D9E71846FFF710FEAFE709220C
:1007D00043F040032A60A381C7E700BF0C0000205C
:1007E000830730B547D0541E002A3ED0CAB2034614
:1007F00001E0013C39D303F8012B9D07F9D1032C0B
:100800002CD9CDB205EB05250F2C05EB054535D9C7
:10081000A4F1100222F00F0C03F1100EE6444FEA8F
:10082000121C1A46C2E90055C2E90255103272453F
:10083000F8D10CF1010214F00C0F03EB021204F0DA
:100840000F0C13D0ACF1040323F00303043313445F
:1008500042F8045B9342FBD10CF003042CB1C9B203
:100860001C4403F8011BA342FBD130BD6446134670
:10087000002CF4D1F9E703461446C0E71A46A44613
:10088000E0E700BF38B5074D0022044608462A605D
:1008900004F010FC431C00D038BD2B68002BFBD0AB
:1008A000236038BDA401002038B50C46084D8446AD
:1008B000114620461A4600232B60644604F004FCCF
:1008C000431C00D038BD2B68002BFBD0236038BD03
:1008D000A401002038B50C46084D84461146204638
:1008E0001A4600232B60644604F0C6FB431C00D06C
:1008F00038BD2B68002BFBD0236038BDA40100203D
:1009000038B50C46084D8446114620461A46002349
:100910002B60644604F0C0FB431C00D038BD2B683C
:10092000002BFBD0236038BDA4010020014B1868C8
:10093000704700BF0C00002070B50F4B0F4DAB424D
:10094000A3EB050607D0B610002455F8043B01348C
:100950009847A642F9D804F033FD094D094B5E1BB8
:10096000AB424FEAA60606D0002455F8043B0134FA
:100970009847A642F9D870BD885A0008885A0008DE
:10098000885A00088C5A0008704700BF704700BFA3
:10099000704700BF704700BF704700BF704700BF7F
:1009A0000120704701207047704700BF704700BFAB
:1009B000002950D038B551F8043C0C1F002BB8BFAB
:1009C000E418054600F0F6F8274A13682BB1A34255
:1009D0000CD92168601883422CD0636028461460CB
:1009E000BDE8384000F0ECB8A3420FD81A465B6867
:1009F000002BF9D111685018844217D02CD36360B2
:100A000054602846BDE8384000F0DAB81168501844
:100A1000A04214D020D8216860188342EFD1186812
:100A20005B680844C4E900035460EAE723680B44A8
:100A30001360E6E718685B6808442060CDE720682B
:100A40000144501883421160DBD1D3E90004014412
:100A5000C2E90014D5E770470C232B602846BDE897
:100A6000384000F0ADB800BFCC01002070B5104E8A
:100A7000336805460C46B3B12146284600F0B2FF64
:100A8000431C0CD0C41C24F00304A04205D0211A3E
:100A9000284600F0A7FF013001D0204670BD4FF07E
:100AA000FF34204670BD194600F09CFF3060E3E73C
:100AB000C80100202DE9F843CD1C25F003050835B9
:100AC0000C2D38BF0C25002D064618DBA94216D880
:100AD000DFF8DC8000F06EF8D8F80420A2B11446EC
:100AE00003E0636822467BB11C4623685B1BF8D495
:100AF0000B2B1FD89442636854D053600CE00C2336
:100B000033600020BDE8F88329463046FFF7AEFF8A
:100B1000431C044619D00560304600F051F804F13A
:100B20000B00231D20F00700C21A1CBF1B1AA35084
:100B3000BDE8F88361199442256014BF5160C8F87C
:100B40000410635163684B60E6E7D8F804701FB384
:100B50003C467F68002FFBD123683946304604EBC2
:100B6000030900F03FFF814516D12368ED1A29469D
:100B70003046FFF77BFF01300ED02368D8F8042001
:100B80002B442360536883B1A34203D01A465B68A9
:100B90009C42FBD10023B0E70C233360304600F0C9
:100BA0000FF8AEE7C8F80430B6E7C8F80470B3E74A
:100BB000C80100200148FFF7F1BE00BFB8010020C6
:100BC0000148FFF7F3BE00BFB80100209368013B66
:100BD000002B936011DA10B49469A34209DB0A294F
:100BE00007D01368581C1060197008465DF8044B54
:100BF00070475DF8044BFFF741BD1368581C106047
:100C000019700846704700BF9BB1F8B513440646FB
:100C10000F46541E5D1E01E0AC4208D014F8011FBF
:100C20003A463046FFF7D2FF431CF5D1F8BD00200D
:100C3000F8BD0020704700BF936810B514461BB97B
:100C400018460023636010BD00F01AFC0023A36067
:100C50000023636010BD00BF2DE9F04FA1B08B46AB
:100C600091461C46049018B1036A002B00F047819E
:100C7000DBF86420BBF90C30D20702D49F0540F1A9
:100C800037811E0740F19E80DBF81030002B00F00A
:100C900099800023CA460D9343F22003ADF8393002
:100CA0009AF80030974E07940127002B7AD0D1464E
:100CB00004E019F8013F002B00F09A80252BF8D1B1
:100CC000B9EB0A0840F0978099F80030002B69D002
:100CD00000234FF0FF32CDE9092309F10109089300
:100CE0000B938DF863301E9305E0089A07FA03F31F
:100CF0001A430892A1464C46052214F8011B3046BF
:100D000000F086FEA246831B0028EED1089BD80681
:100D100044BF20228DF86320190799F8001044BFC2
:100D20002B228DF863202A297BD1079A116804327F
:100D300000290792C0F2B0800B9199F801102E297A
:100D400000F08680704C0322204600F061FE38B12E
:100D5000089B001B4022824013430AF1010A0893BA
:100D60001AF8011B69488DF83810062200F050FE71
:100D7000002800F09780664B002B7ED007AA0092D7
:100D8000644B04985A4608A9AFF300800390039B74
:100D9000013307D00D9B039A13440D939AF800304A
:100DA000002B84D1DBF8643013F0010FBBF80C305A
:100DB00002D19A0540F195805B0616D40D9821B0BA
:100DC000BDE8F08F04985946FFF7A8FC00283FF4CF
:100DD00060AFDBF86430DD0707D4BBF80C309C054E
:100DE00003D4DBF85800FFF7E1FD4FF0FF30E6E7F2
:100DF000B9EB0A08D6D00AF1FF35CDF81490A94610
:100E0000049D01E0A0453FD94C465A4619F8011F00
:100E10002846FFF7DBFE02340130A4EB0A04F1D1CF
:100E2000C0E7A1F13002092A88BFCA4687D80B9BC8
:100E300000E00134217803EB830302EB4303A1F1CB
:100E40003002092AF5D92E290B93A2467FF47AAFF6
:100E50009AF801102A292FD1079B9AF802101A68D4
:100E600009920433002A0AF102000793B8BF4FF039
:100E7000FF338246B8BF099364E7079B073323F02B
:100E800007030833079385E70D99DDF81490414473
:100E900099F800300D9119E7494243F002030B9194
:100EA00008934AE707AA00921A4B04985A4608A9E1
:100EB00000F0D2F803906AE7A1F130020023092A7A
:100EC00009930AF1010A3FF63DAF1AF8011F03EB3F
:100ED000830302EB4303A1F13002092AF5D90993F8
:100EE00030E7DBF85800FFF761FDBBF80C3063E733
:100EF000DBF85800FFF752FDBBF90C30C1E6FFF7F5
:100F000075FAB5E6345A00083C5A0008405A000801
:100F100000000000090C000810B4054C844613467C
:100F200020685DF8044B0A466146FFF795BE00BF96
:100F30000C0000202DE9F84F92461F460A698B6885
:100F4000DDF828909A42B8BF1A46CAF8002091F8F6
:100F500043300C46064613B10132CAF8002022681D
:100F600091065FD5DAF800300233CAF80030226803
:100F700012F0060F11461DD1E1689942D8BF114603
:100F800018DD4FF0000804F1190B05E0E568DAF808
:100F90000030ED1A45450CDD01235A4639463046EE
:100FA000C847013008F10108F0D14FF0FF30BDE82B
:100FB000F88F216894F84330003B18BF01238A065C
:100FC0000AD5E1185A1C302081F84300224494F8D5
:100FD000451082F84310023304F14302394630468B
:100FE000C8470130E1D02368DAF80050216903F0E6
:100FF0000603042BD4E902201BD08A4220DD4FF0E7
:101000000008521A90441A34002501E0454517DAC9
:101010000123224639463046C847013005F1010513
:10102000F4D1C2E712F0060F0DD0003B18BF012328
:10103000D2E7401B8A4220EAE078E2DC0028E2DCCA
:101040000020BDE8F88FE168DAF800309942D8BF97
:10105000114696DCAEE700BF2DE9F047174684B095
:101060000A7E0C9D0C460646984601F1430C002A68
:1010700035D0A2F15803D9B2202969D8202B67D8DE
:10108000DFE813F0E60066006600660066006600B2
:1010900066006600660066006600AC0070006600D0
:1010A0006600660066007000660066006600660006
:1010B00021008300C60066006600B600660083005B
:1010C00066006600EC002B6822686169181D2860C4
:1010D00010061B6802D4520600F1E080196000235C
:1010E000E1462361CDF800803B4603AA2146304605
:1010F000FFF720FF013020D023694A4639463046A9
:10110000C047013019D02368E068DDF80C909B07D8
:1011100018D5484516DD002504F1190A04E0E068F9
:10112000A0EB0903AB420DDD0123524639463046A0
:10113000C047013005F10105F1D14FF0FF3004B097
:10114000BDE8F0874845B8BF484604B0BDE8F08721
:1011500084F84220012004F142090023206184F830
:101160004330BFE72A682368111D1806296002D49E
:10117000590600F195801068014600286268C0F2A7
:10118000938054484FF00A0E15E020682B6810F049
:10119000800F53F8041B02D1400648BF89B26F2A62
:1011A0004C482B6014BF4FF00A0E4FF0080E00237E
:1011B000626884F84330002AA26051DB236823F080
:1011C0000403236000294BD1002A7BD1E146BEF104
:1011D000080F56D0ACEB0903236183E72B681A682C
:1011E00004332B6004F1420984F842200120B4E763
:1011F0002B686268191D2960D3F8009000214846C9
:1012000000F006FC002863D0A0EB09006060A4E7B2
:10121000236843F02003236078222F4884F8452078
:101220002A6813F0800F52F8041B03D113F0400F0B
:1012300018BF89B22A60DA0744BF43F02003236055
:1012400019B9236823F0200323604FF0100EAEE796
:10125000582384F845301F482368E1E72368DBE71B
:101260007546E146B1FBF5F305FB131A0A46AA429F
:1012700010F80A1009F8011D1946F3D2BEF1080F43
:10128000A8D12368DD07A5D5626823699A42A1DC4D
:10129000302309F8013C09F1FF399BE719801EE76B
:1012A000B2F90010084668E72D20002AA26084F8F1
:1012B000430002DB23F0040323600A25054849426A
:1012C000AE46CEE7037884F8423004F142097EE767
:1012D000606842E7485A00085C5A0008B1F90C30CF
:1012E0002DE9F0411E070C4680463DD44A68002A8D
:1012F00056DDE56A002D34D00022D8F80060C8F829
:10130000002013F48052216A57D101234046A84798
:10131000451C024666D0B4F90C30E56A216A5807CC
:1013200005D56368D21A636B0BB1236CD21A002304
:101330004046A847431C42D00023636023692360D2
:10134000A389DF0400D56065616BC8F8006041B116
:1013500004F14403994202D04046FFF729FB0023E1
:1013600063630020BDE8F0810E69002EF9D09B0771
:101370000D6808BF4B690E6018BF0023AD1B8B6062
:101380000BE02B463246216AA76A4046B847B0F1C7
:10139000000CA5EB0C05664406DD002DF1DCE0E752
:1013A0000A6C002AA5DCDCE7B4F90C3043F04003FA
:1013B000A3814FF0FF30BDE8F081626DAFE7D8F850
:1013C0000010B4F90C301D29F0D80C4ACA40D507DA
:1013D000ECD52269226000226260DA04B4D50029CB
:1013E000B1D0B1E7D8F80030002B94D01D2B01D03C
:1013F000162BD9D1C8F80060B3E700BF0100402028
:1014000038B50B69CBB10C46054608B1036ABBB1D0
:10141000B4F90C308BB1626ED00701D4990512D5A6
:1014200028462146FFF75AFF636EDA07054602D4C5
:10143000A3899B050BD5284638BD0025284638BD15
:10144000FEF7D4FFE4E7A06DFFF7A8FAE8E7A06D88
:10145000FFF7ACFAEFE700BF014618B1044B18687C
:10146000FFF7CEBF034A04490448FFF70FB800BF97
:101470000C000020000000200114000810000020D3
:101480009368002B00F0F8802DE9F04FB1F90CC003
:101490001CF0080F83B0904681460C4631D00B6992
:1014A0007BB31CF00207D8F8006038D00027D4F8CE
:1014B00028B0216ADFF8C4A23D4655452B463A467E
:1014C00028BF53464846C5B1D847002840F3CA80D4
:1014D000D8F808301B1A07442D1AC8F80830002B1A
:1014E00000F0B68055452B46D4F828B0216A28BFB5
:1014F00053463A464846002DE6D1D6E900750836EF
:10150000DBE721464846FFF709F9002840F0AF80A5
:10151000B4F90CC0D8F800601CF00207C6D11CF06A
:10152000010A63D12368A168574618468B46002FED
:1015300058D01CF4007F00F0B580B9420A4600F292
:10154000E1801CF4906F2FD0216962695D1A02EB73
:10155000420202EBD2726B1C52103B44934292BF88
:1015600093469B461A461CF4806F00F0EA801146B1
:101570004846FFF79FFA002800F0F9802A462169C3
:10158000009000F095FAA289009B22F4906242F04C
:101590008002A2815819ABEB0505C4F814B0236191
:1015A000A5602060BB463A465146009200F072F9B1
:1015B000A1682368009AA1EB0B011A443D46A16083
:1015C00022600027D8F808305B1BAA44C8F808300E
:1015D000002B3DD02368A168B4F90CC018468B4697
:1015E000002FA6D1D6E900A708369EE73846BB46AD
:1015F0003D460097002D41D0002846D0009A206833
:10160000A168D4E90473AA4228BF2A46B84204D983
:1016100001EB030A524500F38580934275DC216A91
:10162000A76A5A464846B847B0F1000A1ADD009B3F
:10163000B3EB0A0300930FD00120D8F80830A3EBD6
:101640000A03D344A5EB0A05C8F80830002BD1D112
:10165000002003B0BDE8F08F21464846FFF7D0FEDA
:101660000028EAD0B4F90C3043F04003A3814FF0D6
:10167000FF3003B0BDE8F08F002070477568334637
:101680000836002DFAD0D3F800B02A460A21584671
:1016900000F0BEF9002867D00130A0EB0B030093E7
:1016A0001A46ACE722699A4214D36269BA4211D849
:1016B0006FF00043BB4228BF3B46A56A93FBF2F3A1
:1016C000216A02FB03F348465246A847051EC9DDBE
:1016D0007F1B77E7B94228BF39460D4618460A46B0
:1016E000514600F0D7F8A1682368491B2B44A1603C
:1016F00023600029ECD121464846FFF781FE0028EF
:10170000E6D0AFE7BB463A464EE75946019200F0B5
:10171000C1F8019AA3689B1AA3602368134423604D
:10172000924684E75946524600F0B4F82368534481
:10173000236021464846FFF763FE00283FF477AF59
:1017400090E7484600F04EFA034600287FF422AFA7
:1017500021694846FFF72CF9B4F90C300C22C9F87E
:10176000002023F080037FE76A1C009247E70C22E9
:10177000B4F90C30C9F8002076E700BF00FCFF7F09
:1017800070B5B1F90C300C46990796B007D504F145
:1017900047030122C4E90432236016B070BDB4F9D6
:1017A0000E100029054629DB6A4600F0F3F80028F0
:1017B00022DB4FF480612846019EFFF77BF988B356
:1017C000A389206043F0800306F47046A381B6F538
:1017D000005F4FF48063C4E90403DED1B4F90E1056
:1017E000284600F0EDF80028D7D0A38923F00303A2
:1017F00043F00103A381D0E7B4F90C3013F0800F5C
:1018000014BF40264FF4806631462846FFF752F950
:1018100040B1A389206043F08003C4E90406A3819A
:1018200016B070BDB4F90C309A05B6D423F003039A
:1018300004F1470243F002030121C4E90421A3811A
:101840002260AAE770B50C46B1F90E10002996B0D7
:1018500015461E460FDB6A4600F09CF800280ADB9E
:10186000019B03F47043A3F50053B3FA83F34FF4E1
:1018700080625B0908E0A28912F0800F4FF000033C
:1018800014BF40224FF48062002033602A6016B0FB
:1018900070BD00BF88420ED98B1883420BD900EB74
:1018A000020C002A6ED0624613F801CD02F801CD79
:1018B0009942F9D170470F2A0FD8034602F1FF3C35
:1018C000002A5FD00CF1010C013B8C4411F8012B74
:1018D00003F8012F6145F9D1704740EA01039B07E6
:1018E00051D1A2F1100370B501F1200C23F00F05C6
:1018F00001F1100E00F11004AC441B095EF8105CFD
:1019000044F8105C5EF80C5C44F80C5C5EF8085C13
:1019100044F8085C5EF8045C44F8045C0EF1100EB8
:10192000E64504F11004E9D1013312F00C0F01EB8C
:10193000031102F00F0400EB031328D0043C24F041
:1019400003064FEA940C1E441C1F8E465EF8045B8F
:1019500044F8045FB442F9D10CF1010402F003022F
:1019600003EB840301EB840102F1FF3C4AB10CF16B
:10197000010C013B8C4411F8012B03F8012F614548
:10198000F9D170BD704702F1FF3C03469AE7224649
:10199000EAE700BF70B50C46084D03460026204616
:1019A00011461C462E6003F088FB431C00D070BD1E
:1019B0002B68002BFBD0236070BD00BFA40100206A
:1019C00038B5074D0022044608462A6003F07AFB2A
:1019D000431C00D038BD2B68002BFBD0236038BDE2
:1019E000A401002038B5074D0022044608462A60AD
:1019F00002F0FEFE431C00D038BD2B68002BFBD04C
:101A0000236038BDA4010020000000000000000099
:101A100001F0FF01102A2BDB10F0070F08D010F89F
:101A2000013B013A8B422DD010F0070F42B3F6D1A3
:101A3000F0B441EA012141EA014122F007047FF0BC
:101A400000070023F0E80256083C85EA010586EA13
:101A5000010685FA47F5A3FA87F586FA47F6A5FA4F
:101A600087F68EB9EED1F0BC01F0FF0102F007025B
:101A700032B110F8013B013A83EA010313B1F8D106
:101A80000020704701387047002D06BF35460338E7
:101A9000073815F0010F07D1013015F4807F02BF20
:101AA000013015F4C03F0130F0BC0138704700BF71
:101AB000844641EA000313F003036DD1403A41D359
:101AC00051F8043B40F8043B51F8043B40F8043B18
:101AD00051F8043B40F8043B51F8043B40F8043B08
:101AE00051F8043B40F8043B51F8043B40F8043BF8
:101AF00051F8043B40F8043B51F8043B40F8043BE8
:101B000051F8043B40F8043B51F8043B40F8043BD7
:101B100051F8043B40F8043B51F8043B40F8043BC7
:101B200051F8043B40F8043B51F8043B40F8043BB7
:101B300051F8043B40F8043B51F8043B40F8043BA7
:101B4000403ABDD2303211D351F8043B40F8043B47
:101B500051F8043B40F8043B51F8043B40F8043B87
:101B600051F8043B40F8043B103AEDD20C3205D357
:101B700051F8043B40F8043B043AF9D2043208D04F
:101B8000D2071CBF11F8013B00F8013B01D30B88C1
:101B900003806046704700BF082A13D38B078DD09F
:101BA00010F003038AD0C3F10403D21ADB071CBF71
:101BB00011F8013B00F8013B80D331F8023B20F8DB
:101BC000023B7BE7043AD9D3013A11F8013B00F814
:101BD000013BF9D20B7803704B7843708B7883709C
:101BE000604670472DE9F041144641B30AB30646FA
:101BF0000D4600F029F88442074602D8B4EB500F96
:101C000013D821463046FEF755FF804650B1BC42FE
:101C10002246294628BF3A46FFF74AFF2946304662
:101C2000FEF7C6FE4046BDE8F081A8464046BDE846
:101C3000F081A046FEF7BCFE4046BDE8F081BDE85D
:101C4000F0411146FEF736BF51F8043C181F002B37
:101C5000BCBF0B58C018704710EE103A184923F05B
:101C600000428A421AD9B2F1FF4F02D330EE400A45
:101C7000704700B583B0684600F02AF900F0030011
:101C80000128DDED010A9DED000A10D0022809D0DF
:101C900090B900F053F803B05DF804FBDFED090ADA
:101CA00000F04CB800F04AF8B1EE400AF3E700F05B
:101CB000C7F8B1EE400AEEE7012000F0C1F8EAE70C
:101CC000D80F493F0000000010EE103A194923F0E8
:101CD00000428A421BD9B2F1FF4F02D330EE400AD4
:101CE000704700B583B0684600F0F2F800F00300DA
:101CF0000128DDED010A9DED000A13D002280BD06A
:101D000098B9012000F09CF803B05DF804FBDFED0A
:101D10000A0A002000F094B8012000F091F8B1EE1A
:101D2000400AF1E700F00AF8EEE700F007F8B1EE3C
:101D3000400AE9E7D80F493F0000000010EE103AD2
:101D400023F00043B3F1485F2CD2FDEEC07A17EECA
:101D5000903A002B60D060EE007A9FED317A9FEDD3
:101D6000315ADFED315A9FED316ADFED316AA7EE6E
:101D7000875A9FED307AE7EE855AA7EEA56AA7EE5F
:101D8000867AE7EE876A67EEA66A60EEC00AB6EE6C
:101D9000007AE7EEA60AB7EE000AD7EE870A30EE21
:101DA000600A704760EE007A9FED1D7A9FED1D5A24
:101DB000DFED1D5A9FED1D6ADFED1D6A1E4AA7EE7D
:101DC000875A93429FED1B7AE5EE275AA5EEA76A44
:101DD000A6EE277AE7EE276A66EEA76AD5D9174AF4
:101DE000934214D803F17F4307EE103AB7EE006A2E
:101DF00036EE476A60EEC00AF6EE005A97EEA57A14
:101E0000E7EEA60A37EE607A36EE470A7047B6EE7E
:101E1000076AB5EE027AEDE7B7EE000A704700BF39
:101E20004ED747ADF6740F317CF293B4010DD03725
:101E3000ABAA2A3D610BB6BA9999993E0000483F7A
:101E400010EE103A23F00043B3F1485F04D2FDEEE8
:101E5000C07A17EE903A5BB360EE007A9FED157A88
:101E6000DFED155A9FED156ADFED156AE7EE875A2B
:101E70009FED147AA5EEA76A20EE275AE6EE276AB0
:101E8000A6EEA77A30B9DFED106AE7EE876AA6EE14
:101E9000850A704727EE457AF6EE006AA0EEA67A2C
:101EA000DFED0A6AD7EE270AE5EE260A30EE600A71
:101EB000704700BFD3C92E2F342FD7B21BEF38364F
:101EC000010D50B98988083CABAA2ABEABAA2A3EAC
:101ED00070B510EE103A884A23F00044944286B060
:101EE000054671D9854A94421E4624D823F0004203
:101EF000002BDFED837A834922F00F02B0EE407AA7
:101F000040F3E0808A4270EE677A09BF9FED7E7AE7
:101F1000DFED7E6ADFED7E6A77EEC77A37EEE67A2E
:101F200077EEC77A80ED007A77EEE67AC0ED017A37
:101F3000012006B070BD774A944252D9B4F1FF4FE8
:101F400048D2E215863AA4EBC25307EE903ABDEEB2
:101F5000E77ADFED716AB8EEC77A77EEC77A8DED72
:101F6000037A67EEA67ABDEEE77AB8EEC77A77EE27
:101F7000C77A8DED047A67EEA67AF5EE407AF1EE37
:101F800010FACDED057A40F09880B5EE407AF1EE8A
:101F900010FA0CBF01230223604901910221009134
:101FA00003A8294600F0CCF8002EC2DA95ED007A9D
:101FB000D5ED017AB1EE477AF1EE677A85ED007AD8
:101FC000C5ED017A4042B4E7002285ED000A426087
:101FD0000020AEE770EE407AC0ED017AC0ED007AE5
:101FE000F6E700F0A5F89FED4E7A9FED456AF6EE14
:101FF000007AE0EE077A9FED457AFDEEE77A17EE7C
:10200000900AF8EEE76A1F28A6EEC60A66EE877AFF
:10201000B1EE666A20DC434A411E26F0004352F8C6
:10202000212023F0FF03934216D030EE677A30EE82
:10203000470A002E30EE670A85ED007A85ED010A29
:10204000BFF677AFB1EE477AB1EE400A85ED007A80
:1020500085ED010A40426CE730EE677AE21517EE33
:10206000103AC3F3C753C3EBD453082BDFDD9FED06
:10207000267A9FED275AF0EE405AE6EE075A70EEA8
:10208000657AE6EE077AD6EE857A35EEE77A17EED0
:10209000103AC3F3C753D21A192A10DD9FED227AE2
:1020A0009FED225AB0EE650AA6EE070A75EEC07AD9
:1020B000E6EE077AD6EE857AB7E703236CE7B0EE53
:1020C000650AB4E78A4270EE277A09BF9FED0E7A5F
:1020D000DFED0E6ADFED0E6A77EE877A37EEA67ACD
:1020E00077EEC77A80ED007A77EEA67AC0ED017AB6
:1020F0004FF0FF301DE700BFD80F493FE3CB16403C
:10210000800FC93FD00FC93F0044353743443537AE
:1021100008A3852E800F49430000804358540008CF
:1021200084F9223FD853000800A3852E32318D2434
:1021300010EE103A23F0004300EE103A704700BF53
:102140002DE9F04F2DED048BDBB01C469446039334
:102150000A46CD4B68991CF1040F53F82160824662
:1021600004F1FF38C0F24982BCF1030348BF0CF10F
:102170000403DB10029301334FEAC30EACEB0E03F2
:102180000593029B16EB0800A3EB080316D401305D
:102190009FEDBE7A699C18441EA9002BA4BF54F879
:1021A000235007EE905A03F10103ACBFF8EEE77A33
:1021B000F0EE477A8342E1EC017AEED1002EC0F2D4
:1021C000B182039B1EA901EB830446AD4FEA83094C
:1021D0004046F7180AEB8301B8F1000FDFEDAB7A48
:1021E00009DBA3465346F3EC016A3BED017A8B42CF
:1021F000E6EE877AF7D10130B842E5EC017A04F1D6
:102200000404E9D10DF1280B0BEB8603CDE9062E72
:10221000043B9FEDA09ADFED9E8A059804930AEB9C
:10222000090446AF0BEB86090096CDF820C05AABE7
:1022300003EB8603002E13ED140A4FEA860515DD25
:102240007B195A4660EE097AB0EE407AFDEEE77AE5
:1022500073ED016AF8EEE77ABB42A7EEE87A37EE53
:10226000A60ABDEEC77AA2EC017AEBD1019000F08C
:1022700085FAF4EE007AB0EE408A20EE270A00F0EC
:10228000EFFAF2EE007AA0EE678A01980028FDEEE0
:10229000C89AF8EEE97A38EE678A6CDD06F1FF3EFF
:1022A000C0F108035BF82E2042FA03FC0CFA03F39A
:1022B000D21AC0F1070119EE903A4BF82E200A41CC
:1022C0006344002A09EE903A00F3F080B5EE408AAC
:1022D000F1EE10FA40F09D80009B9E420ADD5D44C5
:1022E000002355F8041D4D4543EA0103F9D1002BA5
:1022F00040F0F280009B013B5BF82330002B40F064
:10230000E780049B012153F8042D0131002AFAD003
:10231000731C31449C46029D039A05EB030E0EF19B
:10232000804E699D32440EF1FF3E07EB83061EABE3
:1023300005EB8E0E03EB8205DEED017AF8EEE77A0F
:10234000B8F1000F0EF1040EE5EC017ADFED4F7AE3
:1023500009DB2A465346F3EC016A32ED017AA342C7
:10236000E6EE877AF7D10CF1010C6145E6EC017AD3
:10237000E2DA0E465BE740F08F80731E5BF82320A5
:10238000D211002AA2DD19EE903A002E03F10103CA
:1023900009EE903A40F3D48159464FF0000E51F8BF
:1023A000043B002B6AD0C3F5807341F8043C04E081
:1023B0000B68C3F1FF0341F8043B0EF1010E7645B3
:1023C000F6DC01239E4600280ADD012878D0022889
:1023D00006D1711E5BF8213003F03F0C4BF821C091
:1023E000022A7FF473AFB7EE000A734630EE488AD4
:1023F000002B3FF46BAF0992019000F0BFF938EE6B
:10240000408A0198099AB5EE408AF1EE10FA3FF43D
:1024100063AF9246DDE9062EDDF820C00196AEEBF3
:102420000C00B0EE480A009E009200F0A7F9DFED24
:10243000186AB4EEE60AF1EE10FADDE90023F0EED8
:10244000407AC0F250819FED137A059920EE077A09
:102450000831BDEEC77A0591B8EEC77A5C1CE7EE8D
:10246000667ABDEEC77AFDEEE77A17EE901A4BF862
:10247000231017EE103A4BF8243046E00EF1010E0F
:10248000B6458CDB9E469EE77057000800000000B2
:10249000000080430000803BF6EE007AB4EEE78A4D
:1024A000F1EE10FA80F2988000220FE70133002E3F
:1024B00009EE903A3FF770AF002301289E4686D17F
:1024C000711E5BF8213003F07F0C4BF821C087E7C9
:1024D000731C9C4619461EE733469246DDE90512F9
:1024E0005C1EA1F108005BF82410009E059061B904
:1024F00003F18043013B0BEB8303014653F8040DCA
:10250000013C08390028F9D0059105980092B7EEF2
:10251000000A00F033F9002C009AB0EE407AC0F2C5
:102520000581601C46AD5FED256A81000BEB8003E1
:1025300005EB800073ED017AF8EEE77A5B4567EE14
:10254000877A27EE267A60ED017AF3D10DF1C8087B
:102550000B1F46A8C718C646A44600259146002E64
:1025600073DB844ADFED847A3846002301E0AB4216
:1025700008DCF2EC016AB0EC017A01339E42E6EE2F
:10258000877AF4DA0CF1FF3CBCF1FF3FEEEC017A04
:1025900005F10105A7F10407E1D1689B022B4A462A
:1025A00056DC002B2EDC0ED1DFED737A414431ED89
:1025B000017A414577EE877AF9D15346002B40F0F6
:1025C000AE80C2ED007A19EE903A03F007005BB0DE
:1025D000BDEC048BBDE8F08F19EE903A002E03F1AC
:1025E000010309EE903AC8BF02223FF7D5AEF7EEDD
:1025F000007A37EEC88A022268E600234FF0080E00
:102600000293BBE59FED5C7A414471ED017A41454F
:1026100037EE277AF9D1DDED327A534677EEC77A75
:10262000002B75D182ED007A64B133A90123B1EC9E
:10263000017A01339C4277EE877AF8DA53460BB180
:10264000F1EE677AC2ED017ABDE7DFED4B7A99E7EB
:10265000689B032BB7D1002C7ED008EB840595ED49
:10266000007AA0002B46294671ED017AF0EE476A08
:1026700037EE277A414577EEC77A81ED007A77EE1B
:10268000A67AC1ED017AEFD1012C65D095ED007AE3
:1026900008F1040173ED017AF0EE476A37EE277A0C
:1026A000994277EEC77A83ED007A77EEA67AC3ED8A
:1026B000017AEFD1031DDFED307A434408F10808B9
:1026C00033ED017A984577EE877AF9D15346DDEDFF
:1026D000326A9DED337A73B9C2ED006A82ED017AF8
:1026E000C2ED027A6FE7FDEEC07A1C4617EE901A33
:1026F0004BF8231009E7F1EE666AB1EE477AF1EE86
:10270000677AC2ED006A82ED017AC2ED027A5AE779
:10271000B1EE477A82ED007A002C86D190E7F1EE97
:10272000677A4EE7039B4FEA83096BE5689B022BB0
:102730000EDC002B13DC7FF446AFDFED0F7A3CE7B5
:10274000022A7FF4C3ADF7EE007A37EEC88ABDE502
:10275000689B032B7FF437AFDFED077AB6E753466C
:10276000DDED327A13B9002313606BE74FF00043BD
:10277000136065E77C5700080000000010EE103A77
:1027800033F000411A4627D0B1F1FF4F21D213F0A8
:10279000FF4F22D1DFED2B7A2B4A60EE277A904251
:1027A00017EE903A33DB4CF2503CC3F3C75160450F
:1027B0001A46A1F1190116DDDFED247ADFED246A56
:1027C000002BB0EE677AB8BFF0EE667A27EE870A84
:1027D000704730EE000A704770474CF2503C60453D
:1027E0004FEAD151E8DC0144FE29E5DC002915DC83
:1027F00011F1160F19DB193122F0FF4242EAC152E2
:1028000007EE902A9FED130A27EE800A7047DFED4E
:10281000127A07EE103A27EE270A704722F0FF429D
:1028200042EAC15300EE103A7047DFED0B7ADFED5C
:102830000B6A002BB0EE677AB8BFF0EE667A27EE2F
:10284000870A70470000004CB03CFFFFCAF2497194
:10285000CAF249F1000000336042A20D6042A28D2D
:1028600010EE102AC2F3C7537F3B162B22F0004113
:1028700029DC002B104618DB1A4919410A4221D0E5
:10288000DFED197A70EE277AF5EEC07AF1EE10FAE4
:1028900018DD002A04DA4FF4000242FA03F3184468
:1028A00020EA010300EE103A7047DFED0F7A70EE78
:1028B000277AF5EEC07AF1EE10FA03DD002A08DB84
:1028C0009FED0A0A7047B1F1FF4FFBD330EE000ACB
:1028D0007047DFED077A0029BFEE000A08BFB0EEAF
:1028E000670A7047FFFF7F00CAF2497100000000CD
:1028F0000000008081F0004102E000BF83F000434F
:1029000030B54FEA41044FEA430594EA050F08BF8A
:1029100090EA020F1FBF54EA000C55EA020C7FEA4E
:10292000645C7FEA655C00F0E2804FEA5454D4EBCB
:102930005555B8BF6D420CDD2C4480EA020281EA95
:10294000030382EA000083EA010180EA020281EACD
:102950000303362D88BF30BD11F0004F4FEA01311F
:102960004FF4801C4CEA113102D0404261EB41012E
:1029700013F0004F4FEA03334CEA133302D05242B4
:1029800063EB430394EA050F00F0A780A4F1010470
:10299000D5F1200E0DDB02FA0EFC22FA05F28018AA
:1029A00041F1000103FA0EF2801843FA05F3594190
:1029B0000EE0A5F120050EF1200E012A03FA0EFC0F
:1029C00028BF4CF0020C43FA05F3C01851EBE37139
:1029D00001F0004507D54FF0000EDCF1000C7EEB56
:1029E00000006EEB0101B1F5801F1BD3B1F5001F94
:1029F0000CD349085FEA30004FEA3C0C04F10104B3
:102A00004FEA445212F5800F80F09A80BCF1004FDB
:102A100008BF5FEA500C50F1000041EB045141EA5D
:102A2000050130BD5FEA4C0C404141EB0101013C26
:102A300028BFB1F5801FE9D291F0000F04BF014615
:102A40000020B1FA81F308BF2033A3F10B03B3F1E7
:102A500020020CDA0C3208DD02F1140CC2F10C0277
:102A600001FA0CF021FA02F10CE002F11402D8BFD5
:102A7000C2F1200C01FA02F120FA0CFCDCBF41EAA1
:102A80000C019040E41AA2BF01EB0451294330BD70
:102A90006FEA04041F3C1CDA0C340EDC04F114044D
:102AA000C4F1200220FA04F001FA02F340EA030024
:102AB00021FA04F345EA030130BDC4F10C04C4F16A
:102AC000200220FA02F001FA04F340EA030029464A
:102AD00030BD21FA04F0294630BD94F0000F83F494
:102AE000801306BF81F480110134013D4EE77FEA77
:102AF000645C18BF7FEA655C29D094EA050F08BFC3
:102B000090EA020F05D054EA000C04BF19461046A3
:102B100030BD91EA030F1EBF0021002030BD5FEAE7
:102B2000545C05D14000494128BF41F0004130BD0F
:102B300014F580043CBF01F5801130BD01F0004563
:102B400045F0FE4141F470014FF0000030BD7FEAD6
:102B5000645C1ABF194610467FEA655C1CBF0B46D1
:102B6000024650EA013406BF52EA033591EA030FE8
:102B700041F4002130BD00BF90F0000F04BF0021E0
:102B8000704730B54FF4806404F132044FF0000513
:102B90004FF0000150E700BF90F0000F04BF00218C
:102BA000704730B54FF4806404F1320410F00045F2
:102BB00048BF40424FF000013EE700BF42004FEAED
:102BC000E2014FEA31014FEA02701FBF12F07F436A
:102BD00093F07F4F81F06051704732F07F4208BF21
:102BE000704793F07F4F04BF41F40021704730B528
:102BF0004FF4607401F0004521F000411CE700BF74
:102C000050EA010208BF704730B54FF000050AE0F6
:102C100050EA010208BF704730B511F0004502D5F7
:102C2000404261EB41014FF4806404F132045FEAF9
:102C3000915C3FF4D8AE4FF003025FEADC0C18BFA2
:102C400003325FEADC0C18BF033202EBDC02C2F194
:102C5000200300FA03FC20FA02F001FA03FE40EA26
:102C60000E0021FA02F11444BDE600BF53B94AB97F
:102C7000002908BF00281CBF4FF0FF314FF0FF3084
:102C800000F00CB8ADF1080C6DE904CE02F047FA83
:102C9000DDF804E0DDE9022304B07047704700BFAF
:102CA00010B5054C237833B9044B13B10448AFF386
:102CB00000800123237010BDD0010020000000001F
:102CC000C053000808B5034B1BB103490348AFF3D9
:102CD000008008BD00000000D4010020C05300089F
:102CE0000E4B1B7803B1704710B50C4B01221A70C4
:102CF0000B4C94ED000A0B4B83ED000A02210320DC
:102D000002F0ACF82068FFF759FF02460B46064870
:102D1000FDF7EEFB054801F005FE10BD1402002092
:102D2000100200200C020020A8570008A804002070
:102D300030B52DED028B85B0384B1B78FBB9384B85
:102D400093ED000A374BD3EDBE7A70EE677AF0EE62
:102D5000E77AB0EE007AF4EEC77AF1EE10FA35D5E4
:102D600093F8E9325BBB01F01FFD2F4B1B68C31AC0
:102D7000B3F5FA7F2FD805B0BDEC028B30BD294CDE
:102D8000D4F8F802264B1860244B00221A70FFF783
:102D900015FF02460B462548FDF7AAFBF0EE002A78
:102DA0009FED232ADFED231A9FED231ADFED230A7F
:102DB000B0EE080A04F5517001F0BEFDBFE79FEDCB
:102DC000200A0021042002F049F8CCE70221042067
:102DD00002F044F8C7E7144B1860114BD3ED007AAA
:102DE000104B93EDBE8A77EEC88A17EE900AFFF774
:102DF000E5FE04460D4618EE900AFFF7DFFECDE92A
:102E0000020118EE100AFFF7D9FECDE900012246B3
:102E10002B460C48FDF76CFBADE700BFF801002026
:102E2000FC0100205C020020F4010020DC570008B7
:102E300000007A4400004842CDCCCC3D0AD7A33CE8
:102E4000000048430858000808B503280FD8DFE8F9
:102E500000F0020F20299FED1A0A0121042001F041
:102E6000FDFF9FED180A0121032001F0F7FF08BDC7
:102E7000154B1B7833B19FED120A0121042001F09C
:102E8000EDFFF4E79FED110A0021032001F0E6FFBA
:102E9000F1E7FFF74DFF9FED0B0A0121032001F041
:102EA000DDFFE4E7FFF744FF074B1B78002BDED183
:102EB0009FED060A0021032001F0D0FFD7E700BFF5
:102EC0000000144200003443140200200000C843F4
:102ED00010B501F069FC0A4B1B780A4A11788B4245
:102EE00004D0094B1B68C01AC82800D810BD044C78
:102EF00021700648FDF7FCFA2078FFF7A5FFF5E7FB
:102F00002102002020020020180200204C58000856
:102F100008B50A4B01221A700948FDF75DFB094B01
:102F200093F8E93203B908BD9FED070A0021042098
:102F300001F094FF054801F0F5FCF4E7F8010020EA
:102F4000745800085C02002000009643A005002091
:102F500008B503280AD8DFE800F0020E1C25164B3E
:102F60001B78012B03D0154B01221A7008BD124BA0
:102F700000221A70F7E7104B1B78012B06D19FED4A
:102F8000100A0121042001F069FFEFE7FFF7A8FE16
:102F9000F5E7FFF7BDFF9FED0B0A0121032001F0CC
:102FA0005DFFE3E7FFF7B4FF034B1B78012BDDD098
:102FB000FFF796FEDAE700BF14020020F8010020B8
:102FC000000014420000344338B501F0EDFB044624
:102FD0000421134801F018FB012800D038BD114B23
:102FE0001B68E31A322BF9D90E4B1C600E4B1B7871
:102FF0000E4A12789342F1D101335A4203F0030191
:1030000002F0030358BF5942C9B2084D2970084B5A
:103010001C600848FDF76CFA2878FFF799FFDDE798
:10302000000402401C020020210200202002002097
:10303000180200209C58000830B52DED048B85B097
:1030400001F0B2FB04469C4BD3ED800A9B4BC3EDD1
:10305000000A9B4B1B78002B7CD19A4B1B78032BCF
:1030600000F2FF80DFE803F002173C51DFED967AB3
:10307000F4EEE70AF1EE10FA02DA9FED948A6DE0C1
:10308000904B01221A70924B18609248FDF7A4FAF7
:103090009FED8E8A62E08E4B1B68C31AB3F5FA7FF0
:1030A00012D207EE903AF8EE677ADFED8B6A87EE80
:1030B000A67A37EE077AB7EE008A38EE478ADFED58
:1030C000837A28EE278A49E07E4B02221A709FED10
:1030D000838A7A4B83ED008A8148FDF77DFA3DE0D3
:1030E000DFED807AF4EEE70AF1EE10FA02D99FEDF7
:1030F0007E8A33E0734B03221A70754B18607B484D
:10310000FDF76AFA9FED788A28E0714B1B68C31AB5
:10311000B3F5FA7F12D207EE903AF8EE677ADFED58
:103120006E6A87EEA67A37EE077AB7EE008A38EE37
:10313000478ADFED6D7A28EE278A0FE0614B002287
:103140001A709FED668A5D4B83ED008A6848FDF733
:1031500043FA03E0012B30D09FED608A654B1B687A
:10316000E31AC82B1AD9634B1C60554B1B78002BF4
:103170007AD1544B1D78604B1C7818EE100AFFF77B
:103180001DFDCDE902014D4B1868FFF717FDCDE994
:1031900000012A4621465948FDF7AAF9484B1B78F9
:1031A000002B40F08180B0EE480A0121032001F09D
:1031B00055FE05B0BDEC048B30BD514B93ED000ABC
:1031C00030EE607AF0EEC77AF0EE006AF4EEE67A5E
:1031D000F1EE10FA14D4F3EE0E6AF4EEE67AF1EEA4
:1031E00010FA34DDB5EEC07AF1EE10FA2CDD9FED69
:1031F000458AB0EE480A0121032001F02FFEADE719
:1032000000232F4A13702F4A13702C4B00221A6090
:103210003D48FDF7E1F9384B1B78012B01D0032B1A
:1032200009D1374B93ED000A0221032001F016FE6D
:103230009FED2A8A92E79FED250A0121032001F0E4
:103240000DFE9FED268A89E79FED308AD1E7304851
:1032500001F08AFB0121032001F000FE9FED1F8A8F
:103260007CE79FED1E8A79E7134BD3ED807A244BE0
:10327000D3ED008A38EEE79A17EE900AFFF79EFC2E
:1032800004460D4619EE100AFFF798FCCDE902013D
:1032900018EE900AFFF792FCCDE9000122462B467A
:1032A0001C48FDF725F979E7154B93ED000A02213B
:1032B000032001F0D3FD7CE75C0200200402002023
:1032C0001402002008020020004012450000344390
:1032D00000020020C05800080000FA43000000006F
:1032E000EC580008004012C5000034C3145900080F
:1032F00040590008F00100202102002094590008E4
:103300000C0200200000F042685900080000F0C2E2
:10331000A8040020D059000872B6FEE700B595B0A9
:103320003022002108A8FDF75BFA002303930493E1
:103330000593069307930193204A116C41F0805145
:103340001164126C02F080520192019A02931C4B9C
:103350001A6842F440421A601B6803F44043029327
:10336000029B012308934FF48033099302230E93A9
:103370004FF480020F9206221092A822119212930B
:103380000423139308A800F03BFD98B90F2303937F
:1033900002230493002305934FF4A05306934FF4A4
:1033A00080530793052103A800F07AFF20B915B0D8
:1033B0005DF804FBFFF7B0FFFFF7AEFF00380240F7
:1033C0000070004008B501F0C9F9FFF7A7FF00F051
:1033D0005FF800F0A5F801F06BFC01F02DFA254C28
:1033E000D4F80002244B1860FFF7E8FB02460B46B6
:1033F0002248FDF77DF89FED220A0121042001F00B
:103400002DFD9FED200A0121032001F027FD4FF43F
:103410008053A4F8D6330023C4F8D8330CE0FFF768
:103420000BFE194B1B78012B1CD9FFF781FC01F017
:1034300041FD012001F0BEF901F0B6F9134B1B6804
:10344000C01A0428F5D901F0AFF9104B1860FFF746
:10345000BBFDFFF73DFD0C4B1B78002BDFD0022B93
:10346000DFD1DCE79FED060A0121042001F0F6FC24
:10347000DDE700BF5C02002010020020105A0008A7
:10348000000014420000344321020020EC0100201F
:1034900000B58BB00022059206920792089209921D
:1034A00000921D4B196B41F001011963196B01F07A
:1034B0000101009100990192196B41F00201196319
:1034C000196B01F00201019101990292196B41F00F
:1034D00004011963196B01F004010291029903922E
:1034E000196B41F008011963196B01F00801039190
:1034F000039904921A6B42F080021A631B6B03F06B
:1035000080030493049B0423059305A9034800F05A
:1035100077FF0BB05DF804FB003802400004024066
:1035200008B50E480E4B03600323436000238360FD
:10353000C3604FF4102202614FF40012426103761F
:10354000437683760122C2760377427700F078F8DB
:1035500000B908BDFFF7E0FEFBE700BF2402002032
:103560000064004010B588B00023039304930593D2
:10357000069307930268184B9A4201D008B010BD19
:103580000024019403F5EA331A6C42F000721A64C5
:103590001A6C02F000720192019A02941A6B42F0C6
:1035A00008021A631B6B03F008030293029B0323B8
:1035B00003930222049206930923079303A9074861
:1035C00000F01EFF22462146142001F079F8142055
:1035D00001F086F8D2E700BF00640040000C024012
:1035E000FEE7FEE7FEE7FEE7FEE77047704770473D
:1035F00008B501F0CDF808BD08B5024800F0D8FACA
:1036000008BD00BF2402002082B0002100910B4BB6
:103610005A6C42F480425A645A6C02F4804200921E
:10362000009A01911A6C42F080521A641B6C03F0EC
:1036300080530193019B02B0704700BF00380240E5
:10364000002800F0A18038B5044690F82030D3B1AE
:103650002268136843F00103136001F0A5F80546E2
:1036600023685A6812F0010F10D101F09DF8401B39
:103670000A28F5D9636A43F400336362052384F8AA
:103680002030012038BDFFF76DFFE1E71A6822F016
:1036900002021A6001F088F8054623685A6812F0A1
:1036A000020F0DD001F080F8401B0A28F5D9636A9B
:1036B00043F400336362052384F820300120E1E7FE
:1036C000227E012A3DD01A6822F080021A60637EB1
:1036D000012B3BD02268136823F040031360A37EC4
:1036E000012B39D02268136823F020031360E37E96
:1036F000012B37D02268136843F010031360237F37
:10370000012B35D02268136823F008031360637F10
:10371000012B33D02268136823F004031360A368DD
:10372000E268134322691343626913436268013AF2
:1037300021681343CB6100206062012384F82030AC
:10374000A0E71A6842F080021A60C0E72268136896
:1037500043F040031360C2E72268136843F020037C
:103760001360C4E72268136823F010031360C6E7F0
:103770002268136843F008031360C8E722681368DF
:1037800043F004031360CAE70120704790F820302B
:10379000013BDBB2012B05D9436A43F4802343622A
:1037A0000120704730B5464BD3F8002242F00102A9
:1037B000C3F80022D3F8002222F47C52C3F800227E
:1037C000D3F80022486A42EA0022C3F800224A697C
:1037D00002F01F02012000FA02F2D3F81C026FEA85
:1037E000020C20EA0200C3F81C02CB69C3B9344BB7
:1037F000D3F80C020CEA0000C3F80C028C8848696C
:10380000CD6844EA0544483043F830408C68088865
:1038100040EA04404C6904F1480E03EBCE035860C3
:10382000CB69012B1ED08B69002B33D12448D0F8F3
:1038300004320CEA0303C0F804320B698BBB204846
:10384000D0F814320CEA0303C0F814320B6A012BCF
:103850002ED01B4AD2F8003223F00103C2F8003206
:10386000002030BD164BD3F80C021043C3F80C02F5
:103870008C8848690D6844EA0544483043F8304074
:1038800088894C698D6840EA0540483403EBC403DD
:103890005860C8E70A48D0F804321343C0F804322D
:1038A000CBE70748D0F814321343C0F81432CDE701
:1038B0000349D1F81C321343C1F81C32C9E700BFD9
:1038C0000064004070B5044690F82050EDB2012D20
:1038D00006D0436A43F4002343620125284670BDA5
:1038E000022380F820300268136823F0010313607C
:1038F00000F05AFF064623685B6813F0010F0CD0F6
:1039000000F052FF831B0A2BF5D9636A43F400339E
:103910006362052384F82030E0E700256562DDE777
:1039200030B590F820C00468A4680CF1FF3C5FFA41
:103930008CFCBCF1010F62D814F0E05F59D0C4F3E5
:10394000016C012404FA0CF41C608B68002B3DD13F
:103950000D68CB68046843EA45550CF118031B0158
:10396000E55003680C690CF1180E03EB0E135C6054
:103970000B7D012B35D0D17993791B0443EA016388
:10398000517943EA012314790168234301EB0C11B7
:10399000C1F88C31D17893781B0443EA01635178E4
:1039A00043EA0123117802680B4302EB0C12C2F8C0
:1039B000883102680CF1180C4FEA0C1C52F80C30DC
:1039C00043F0010342F80C3000201DE04C6843EA4C
:1039D000C403CC6823430CF11804240105682B515F
:1039E000BFE7036803EB0E13596841F48071596017
:1039F000C1E7436A43F400134362012004E0436AD1
:103A000043F480234362012030BD90F820C00CF1C4
:103A1000FF3C5FFA8CFCBCF1010F00F2A58030B4D2
:103A200051B90468E46814F0030F10D1436A43F4F9
:103A30000013436201207EE00468246914F0030F40
:103A400005D1436A43F400134362012073E0056823
:103A500001F11B0424012C5904F004049460002C8F
:103A60006BD1056801F11B0424012C59640D14600D
:103A7000046801F11B0C4FEA0C1C54F80C4004F0D4
:103A80000204D4600468A444DCF8045015F0080F64
:103A90005BD008241461046801F11B0C04EB0C14C6
:103AA0006468C4F307249461046804EB0C1464682C
:103AB000240C5461026802EB0112D2F8B8211A708A
:103AC000026802EB0112D2F8B821C2F307225A7041
:103AD000026802EB0112D2F8B821C2F307429A70D1
:103AE000026802EB0112D2F8B821120EDA700268F5
:103AF00002EB0112D2F8BC211A71026802EB01122A
:103B0000D2F8BC21C2F307225A71026802EB0112FB
:103B1000D2F8BC21C2F307429A71026802EB01128B
:103B2000D2F8BC21120EDA71C1B90268D36843F031
:103B30002003D360002030BC7047056801F11B04EE
:103B400024012C59E408546092E701F11B0504EBB1
:103B50000514646804F00F0414619CE7026813699B
:103B600043F020031361E5E7436A43F48023436293
:103B70000120704790F82030013BDBB2012B05D9C2
:103B8000436A43F48023436201207047026853690B
:103B90000B43536100207047704770477047704770
:103BA000704770477047704770477047704770475D
:103BB0002DE9F84F054603685C69D3F804809F68D7
:103BC000D3F80CA0D3F81090D3F818B014F0010675
:103BD0003BD017F0010616D001229A6017F0020FB1
:103BE00008D117F0040F0CD117F0080606D04FF4D7
:103BF000805608E0FFF7D0FF002604E0FFF7CFFF74
:103C000001E04FF4006617F4807F0DD02B684FF46D
:103C100080729A6017F4007F40F0968017F4806FEE
:103C200000F0968046F4005617F4803F0DD02B68C4
:103C30004FF480329A6017F4003F40F0938017F4FD
:103C4000802F00F0938046F4004614F0080F07D050
:103C50001AF0100F04D046F400762B681022DA60B8
:103C600014F0040F03D01AF0080F40F0898014F00C
:103C7000020F05D02B68DB6813F0030F40F087803C
:103C800014F0400F07D019F0100F04D046F48066EE
:103C90002B6810221A6114F0200F02D019F0080FBF
:103CA00079D114F0100F04D02B681B6913F0030FA7
:103CB00078D114F4003F02D018F0100F76D114F42C
:103CC000803F02D018F0080F77D114F4004F37D09E
:103CD00018F0040F31D014F4807F04D01BF0010FD2
:103CE00001D046F0010614F4007F04D01BF0020F4F
:103CF00001D046F0020614F4806F04D01BF0040FCC
:103D000001D046F0040614F4006F16D01BF0700BBF
:103D100013D0BBF1400F66D056D8BBF1200F5CD05A
:103D2000BBF1300F5CD0BBF1100F01D146F008069B
:103D30002A68936923F0700393612B6804225A6008
:103D4000002E56D1BDE8F88F2846FFF726FF6BE717
:103D500017F4006F02D046F4804665E72846FFF767
:103D60001FFF61E72846FFF719FF6EE717F4002FE2
:103D700002D046F4803668E72846FFF712FF64E772
:103D80002B680822DA602846FFF70CFF6FE7284609
:103D900000F070FD74E72B6808221A612846FFF7CF
:103DA00003FF7EE72846FFF7FEFE82E72B6810221E
:103DB0005A602846FFF7F9FE81E72B6808225A600F
:103DC0002846FFF7F3FE80E7BBF1500F0ED0BBF1A2
:103DD000600FADD146F48076AAE746F01006A7E75B
:103DE00046F02006A4E746F04006A1E746F080062C
:103DF0009EE76B6A33436B622846FFF7D8FEA1E764
:103E0000002800F0E08170B582B00446036813F02A
:103E1000010F3BD09F4B9B6803F00C03042B2CD06D
:103E20009C4B9B6803F00C03082B21D06368B3F50F
:103E3000803F4FD0B3F5A02F52D0964B1A6822F492
:103E400080321A601A6822F480221A606368002B9C
:103E500050D000F0A9FC05468E4B1B6813F4003FC0
:103E600014D100F0A1FC401B6428F5D90320B1E176
:103E7000884B5B6813F4800FD8D0864B1B6813F413
:103E8000003F03D06368002B00F09F81236813F08C
:103E9000020F54D07F4B9B6813F00C0F3ED07D4B2C
:103EA0009B6803F00C03082B33D0E368002B68D029
:103EB000794B01221A6000F077FC0546754B1B68B0
:103EC00013F0020F54D100F06FFC401B0228F5D90B
:103ED00003207FE16F4A136843F480331360B5E732
:103EE0006C4B1A6842F480221A601A6842F48032DD
:103EF0001A60ABE700F058FC0546664B1B6813F4EC
:103F0000003FC3D000F050FC401B6428F5D90320CB
:103F100060E1604B5B6813F4800FC6D15D4B1B689A
:103F200013F0020F03D0E368012B40F05081594A8F
:103F3000136823F0F803216943EAC103136023687F
:103F400013F0080F42D063696BB3534B0122C3F8DF
:103F5000802E00F029FC05464E4B5B6F13F0020FDC
:103F600034D100F021FC401B0228F5D9032031E1B7
:103F7000484A136823F0F803216943EAC103136038
:103F8000DDE7454B00221A6000F00EFC0546414B70
:103F90001B6813F0020FD2D000F006FC401B022871
:103FA000F5D9032016E13C4B0022C3F8802E00F027
:103FB000FBFB0546374B5B6F13F0020F06D000F09A
:103FC000F3FB401B0228F5D9032003E1236813F01B
:103FD000040F77D02F4B1B6C13F0805F33D100237D
:103FE00001932C4B1A6C42F080521A641B6C03F044
:103FF00080530193019B0125284B1B6813F4807F9C
:1040000023D0A368012B34D0052B38D0214B1A6F55
:1040100022F001021A671A6F22F004021A67A368DD
:10402000002B3DD000F0C0FB06461A4B1B6F13F06F
:10403000020F46D100F0B8FB801B41F28833984252
:10404000F3D90320C6E00025D6E7144A136843F4E9
:104050008073136000F0A8FB0646104B1B6813F436
:10406000807FCED100F0A0FB801B0228F5D9032071
:10407000B0E0084A136F43F001031367CFE7054B25
:104080001A6F42F004021A671A6F42F001021A67AF
:10409000C5E700BF00380240000047420070004002
:1040A00000F082FB0646524B1B6F13F0020F08D044
:1040B00000F07AFB801B41F288339842F3D9032049
:1040C00088E0EDB9A369002B00F08380484A92682C
:1040D00002F00C02082A51D0022B17D0454B0022C7
:1040E0001A6600F061FB0446414B1B6813F0007F29
:1040F00042D000F059FB001B0228F5D9032069E0EB
:104100003B4A136C23F080531364DBE7394B0022E6
:104110001A6600F049FB0546354B1B6813F0007F1B
:1041200006D000F041FB401B0228F5D9032051E0E6
:10413000E369226A1343626A43EA8213A26A52085D
:10414000013A43EA0243E26A43EA0263284A5360BF
:10415000284B01221A6600F027FB0446244B1B68FB
:1041600013F0007F06D100F01FFB001B0228F5D9D9
:1041700003202FE000202DE000202BE0012B2BD08E
:104180001B4B5B6803F48001E269914226D103F086
:104190003F02216A8A4223D1616A47F6C0721A40FF
:1041A000B2EB811F1ED103F44031A26A5208013ADA
:1041B000B1EB024F18D103F07063E26AB3EB026F08
:1041C00014D1002006E001207047012002E0012008
:1041D00000E0002002B070BD0120FBE70120F9E7FC
:1041E0000120F7E70120F5E70120F3E70120F1E7DF
:1041F000003802400000474208B5264B9B6803F098
:104200000C03042B41D0082B41D1224B5A6802F0F9
:104210003F025B6813F4800F12D01E4B5968C1F344
:1042200088111D480023A1FB0001FEF71FFD194B5B
:104230005B68C3F3014301335B00B0FBF3F008BDDF
:10424000144B5868C0F388104FEA401CBCEB000CBC
:104250006EEB0E0E4FEA8E1343EA9C634FEA8C110D
:10426000B1EB0C0163EB0E03DB0043EA5173C900B1
:1042700011EB000C43F10003990200234FEA8C205C
:1042800041EA9C51FEF7F2FCD1E70348D7E7034827
:10429000D5E700BF00380240001BB7000024F4003F
:1042A000002800F09B8070B50D4604464F4B1B68FC
:1042B00003F00F038B4208D2CBB24C4A1370136841
:1042C00003F00F038B4240F08B80236813F0020F42
:1042D00017D013F0040F04D0454A936843F4E05319
:1042E0009360236813F0080F04D0414A936843F4A5
:1042F000604393603E4A936823F0F003A1680B4348
:104300009360236813F0010F32D06368012B21D032
:104310009A1E012A25D9364A126812F0020F61D07E
:1043200033498A6822F0030213438B6000F03CFAA1
:1043300006462F4B9B6803F00C036268B3EB820FB9
:1043400016D000F031FA801B41F288339842F0D940
:10435000032042E0264A126812F4003FE0D1012017
:104360003BE0234A126812F0007FD9D1012034E0EB
:104370001E4B1B6803F00F03AB4207D9EAB21B4B7D
:104380001A701B6803F00F03AB422DD1236813F0A2
:10439000040F06D0164A936823F4E053E1680B43F8
:1043A0009360236813F0080F07D0114A936823F431
:1043B0006043216943EAC1039360FFF71DFF0C4B83
:1043C0009B68C3F303130B4AD35CD8400A4B1860B5
:1043D0000A4B186800F09CF9002070BD012070475E
:1043E0000120FAE70120F8E70120F6E7003C02404F
:1043F00000380240705A000864000020600000206D
:1044000000230F2B00F2F68070B582B066E085685D
:104410004FEA430E032404FA0EF425EA0405CC689F
:1044200004FA0EF42C438460446824EA02044A68C7
:10443000C2F300129A40224342605DE0DC08083477
:1044400050F8242003F00705AD004FF00F0E0EFAD0
:1044500005FE22EA0E0E0A69AA4042EA0E0240F860
:1044600024205DE0092200E0002202FA0EF22A4335
:104470000234614D45F82420604A94686FEA0C02CA
:1044800024EA0C054E6816F4801F01D04CEA04059E
:104490005A4CA560E46802EA04054E6816F4001F51
:1044A00001D04CEA0405554CE560646802EA040555
:1044B0004E6816F4003F01D04CEA04054F4C65608D
:1044C000246822404D6815F4803F01D04CEA040274
:1044D0004A4C226001330F2B00F28A8001229A405D
:1044E0000C6804EA020C32EA0404F3D14C6804F0CC
:1044F0000304013C012C8AD94A6802F00302032A12
:1045000009D0C4685D000322AA4024EA02048A6834
:10451000AA402243C2604A6802F00302022A8DD0F8
:1045200004684FEA430E032202FA0EF224EA020460
:104530004A6802F0030202FA0EF2224302604A685D
:1045400012F4403FC6D0002201922D4A546C44F42C
:1045500080445464526C02F480420192019A9C0897
:10456000A51C254A52F8255003F0030E4FEA8E0E83
:104570000F2202FA0EF225EA0205224A90423FF487
:1045800073AF02F58062904222D002F580629042C1
:1045900020D002F5806290421ED002F580629042E7
:1045A0001CD002F5806290421AD002F580629042DF
:1045B00018D002F58062904216D002F580629042D7
:1045C00014D002F5806290423FF44CAF0A224CE7CF
:1045D00001224AE7022248E7032246E7042244E791
:1045E000052242E7062240E707223EE708223CE791
:1045F00002B070BD704700BF00380140003C014070
:1046000000380240000002400369194201D0012035
:104610007047002070470000002807DB00F01F02F1
:10462000400901239340024A42F82030704700BFFE
:1046300000E100E0002808DB0901C9B200F1604098
:1046400000F5614080F80013704700F00F00090189
:10465000C9B2014B1954704714ED00E000B500F0E9
:104660000700C0F1070CBCF1040F28BF4FF0040C89
:10467000031D062B0FD9C31E4FF0FF3E0EFA0CF0A0
:1046800021EA000199400EFA03FE22EA0E0241EAF5
:1046900002005DF804FB0023EEE70000074AD36840
:1046A00023F4E0631B041B0C000200F4E0600343EE
:1046B00043F0BF6343F40033D360704700ED00E084
:1046C00010B50446054BD868C0F30220FFF7C6FFBB
:1046D00001462046FFF7AEFF10BD00BF00ED00E031
:1046E00008B5FFF799FF08BD0138B0F1807F0BD204
:1046F0004FF0E0235861054AF02182F82310002092
:10470000986107221A6170470120704700ED00E0B0
:1047100010B504460E4B1A784FF47A73B3FBF2F3DC
:104720000C4A1068B0FBF3F0FFF7DEFF68B90F2CFE
:1047300001D901200AE0002221464FF0FF30FFF7A7
:10474000BFFF054B1C60002000E0012010BD00BF32
:104750005C000020640000206000002008B50B4BC6
:104760001A6842F400721A601A6842F480621A6091
:104770001A6842F480721A600320FFF78FFF0F203F
:10478000FFF7C6FFFEF740FF002008BD003C0240D7
:10479000034A1168034B1B780B441360704700BF3A
:1047A0004C0200205C000020014B1868704700BFDD
:1047B0004C02002038B50446FFF7F6FF0546B4F179
:1047C000FF3F02D0044B1B781C44FFF7EDFF401B5A
:1047D000A042FAD338BD00BF5C000020034AD2F8E3
:1047E000883043F47003C2F88830704700ED00E071
:1047F00010B503460C4A0D490D48006840B10C48FD
:1048000000680344521A934206D8094A136010BD47
:104810000748084C0460F2E7FCF788F80C230360B3
:104820004FF0FF30F3E700BF00000320000400005A
:10483000500200204006002010B58AB001220892E4
:104840000023069307920093019302930393059329
:104850000493074C69462046FEF798FF2046FFF771
:1048600031F802212046FFF785F90AB010BD00BFDC
:104870002402002002680E4B9A4200D0704700B517
:104880008BB001AB03AA0021FFF7BFF8039BA3F293
:104890000522032A04D900F00DFB0BB05DF804FBE0
:1048A000DBB2181F01A9C0B200F0ACFAF3E700BFF9
:1048B0000064004000B58BB04FF4FF7302930023F7
:1048C0000493059308230693144BB3F9002093F93E
:1048D00001108DF820108DF82120B3F9022093F9F2
:1048E00003108DF822108DF82320B3F9042093F9DA
:1048F00005108DF824108DF82520B3F9062093F9C2
:1049000007308DF826308DF8272001AB08AA02A9C0
:104910000348FFF705F80BB05DF804FB54020020D4
:104920002402002038B10022C26102628262426227
:10493000C2620263C263704790B108B580ED000A9D
:10494000C0ED010A80ED021AC0ED031A80ED042AC1
:1049500000224263034981630264FFF7E3FF08BD5D
:10496000704700BF9A99993E0346002800F0A38043
:1049700080ED050AC0ED060A70EE600AC0ED070A78
:10498000B0EEE07AD0ED107AB4EEE77AF1EE10FAFC
:1049900056D4D0ED007A60EEA77AC0ED097AD0ED5A
:1049A0000D6AF5EE406AF1EE10FA04D0B4EEE67A44
:1049B000F1EE10FA5DD593ED0A7AD3ED016A60EE5F
:1049C000A66A37EE267A83ED0A7AD3ED046AB4EE4E
:1049D000E67AF1EE10FA42DDC3ED0A6A93ED087A49
:1049E00030EEC77AD3ED0E6AF5EEC06AF1EE10FA3A
:1049F00006DDB7EE006AF4EEC66AF1EE10FA3BD4BB
:104A0000D3ED026A66EE876AC3ED0B6A83ED0F7A17
:104A100093ED0A7A77EE877A93ED0B7A77EE877AC1
:104A2000C3ED0C7A93ED037AF4EEC77AF1EE10FA47
:104A300037DD83ED0C7AC3ED080A93ED0C0A70475D
:104A40009FED1E0A80ED070A80ED0A0A80ED090A33
:104A500080ED0B0A80ED080A80ED0C0A7047F1EE3C
:104A6000666AB4EEE67AF1EE10FAB7D5C3ED0A6ADB
:104A7000B4E700228262B1E793ED0F6AF7EE005AC5
:104A800075EEE65A26EE256A66EE876A36EE267AD7
:104A9000D3ED026A66EE876AC3ED0B6A83ED0F7A87
:104AA000B6E7B1EE477AF4EEC77AF1EE10FAC2D566
:104AB00083ED0C7ABFE79FED010A7047000000000C
:104AC00042888388D31AB3F5805F1ADDC368013B3F
:104AD000C360D0ED037AF8EEE77ADFED0D6A67EE9A
:104AE000A67A07EE102AB8EEC77A9FED0A6A27EE7B
:104AF000067A27EE267A77EE877AC0ED047A8280EE
:104B0000704713F5805FE4DAC3680133C360E0E700
:104B10000000B44300000039DFED0C7AB4EEE70A80
:104B2000F1EE10FA0CDCDFED0A7AB4EEE70AF1EEF2
:104B300010FA08D4BDEEC00A10EE103A18B2704751
:104B40004FF4804070470348704700BF0000804624
:104B5000000080C600C0FFFF4378032B32D090F8DE
:104B6000EC307BBBB0F9E43007EE903AF8EEE77A30
:104B7000F0EEE77A9FED147AF4EEC77AF1EE10FAD0
:104B80001DDDB0F9063007EE903AF8EEE77AF0EE68
:104B9000E77A9FED0E7AF4EEC77AF1EE10FA0ED5B1
:104BA000D0F8E8300133C0F8E83040F2DC529342EC
:104BB00008D9012380F8EC300323437070470023A9
:104BC000C0F8E830704700BF00803B460000C84294
:104BD000B0F9063007EE903AF8EEE77AF0EEE77AB1
:104BE000B6EE007AF4EEC77AF1EE10FA02D49FED39
:104BF000080A7047D0ED047AF5EEC07AF1EE10FAAB
:104C000002DD9FED040A70479FED030A704700BF65
:104C10000000000000001643000016C308B52DED8B
:104C2000028B0378042B1ED04388B0F8EE209B1A29
:104C3000B3F5805F2DDDA3F5005307EE903AF8EE53
:104C4000E77A90ED3C8A9FED160A27EE800AFDF781
:104C500003F828EE008ABDEEC88A18EE103A18B2A2
:104C6000BDEC028B08BDD0ED047A9FED0E7A67EEA5
:104C7000877A9FED0D0A87EE800AFDF725F8DFEDB4
:104C80000B7A20EE270ABDEEC00A10EE103A18B2D9
:104C9000E6E713F5805FD0DA03F50053CDE700BFF8
:104CA000DB0F493ADB0F4940000034430000484421
:104CB00070B500243FE006466501C4EB4412D30002
:104CC00003440022C3F8F020C4EB4413D80018308A
:104CD000F7EE002A9FED3D2ADFED3D1A9FED3D1ACC
:104CE000F1EE040A9FED3C0A3044FFF725FE2B1B32
:104CF000D80058303044F6EE002AB2EE042ADFED38
:104D0000371A9FED371ADFED370AB1EE0C0A04307F
:104D1000FFF712FE6501C4EB4413D8001830324E81
:104D20003044FFF7FFFD2B1BD800583030440430CF
:104D3000FFF7F8FD0134032C47DC611C2A48C4EB63
:104D40004413DA008318815401225A7000225A61F8
:104D50000022DA6083F8EC209A80A3F8F4204FF464
:104D60008052A3F8EE20032CA5D01F4E6501C4EBA2
:104D70004412D30033440022C3F8F020C4EB4413A0
:104D8000D8001830F1EE042A9FED182ADFED101A32
:104D90009FED171AF0EE000A9FED160A3044FFF758
:104DA000CBFD2B1BD80058303044F1EE042AB3EE73
:104DB000042ADFED111A9FED111ADFED110AB0EE92
:104DC000080A0430FFF7B8FDA4E770BD00409C4519
:104DD00000008046CDCCCC3D00000C4300001643C3
:104DE0006F12033BA69B443B5C02002000803B45C6
:104DF0009A99193E000034420000A0436F12833B91
:104E00000AD7A33B08B5431EDBB2032B00D908BD6C
:104E1000431EC3EB4310104A02EBC00091F800E0C0
:104E200091F801C04CEA0E2CA0F802C091F802E003
:104E300091F803C04CEA0E2CA0F806C091F804E0EB
:104E400091F805C04CEA0E2CA0F808C0897981724F
:104E5000FFF736FEDBE700BF5C020020431EDBB23B
:104E6000032B24D870B5441EC4EB4412104B03EB43
:104E7000C20393F8EC3043B90D4B03EBC2035A78ED
:104E8000597083ED050A8A4200D170BD6501C4EBFB
:104E90004410C0001830064E3044FFF743FD281B75
:104EA000C000583030440430FFF73CFDEDE7704758
:104EB0005C020020F8B52DED028B00244FE0C4EB1E
:104EC00044126A4B03EBC2030022A3F8E420684BB0
:104ED00023F8142042E0012B5FD19FED668A15E094
:104EE0006248C4EB441300EBC303B3F9063000EE91
:104EF000903AC4EB4413DB001833F8EEE00AB0EE4E
:104F0000480A1844FFF730FDB0EE408AC4EB441362
:104F1000564A12F83330042B0AD0C4EB4412534BD8
:104F200003EBC2035B78013BDBB2012B40F28180D3
:104F3000032C00F08F80B0EE480AFFF7EDFDC4EBC4
:104F400044134A4E06EBC306A6F8E4002846FFF7D2
:104F500003FEB6F9E420464B23F814200134032C59
:104F60007EDCC4EB4413414D05EBC30595F8EC30F2
:104F7000002BA4D16B78032BA1D0C4EB44113B4A86
:104F800002EBC10292ED058AB0EEC87AF7EE007A24
:104F9000B4EEE77AF1EE10FA9DD4012BA0D0022BEB
:104FA00004D0002BB2D09FED338AAFE7C4EB44129C
:104FB0002E4B03EBC203D3ED040A78EE607AF0EED9
:104FC000E77AB7EE007AF4EEC77AF1EE10FA1DD464
:104FD0006601C4EB4410C0005830244F3844B0EE92
:104FE000480A0430FFF7C0FC321B07EBC202B2F9DB
:104FF000062000EE902A301BC0001830F8EEE00AC0
:105000003844FFF7B1FCB0EE408A7FE7174800EB69
:10501000C203B3F9063000EE903AD3001833F8EE2D
:10502000E00A9FED140A1844FFF79EFCB0EE408A98
:105030006CE72846FFF7F2FDC4EB44120B4B03EB81
:10504000C203A3F8F40007EE900AF8EEE77A38EE10
:10505000278A6DE72846FFF7BBFD38EE008A6AE72E
:10506000FFF728FCBDEC028BF8BD00BF5C020020FE
:10507000540200200000000070B50C4616460025C2
:1050800006E0AFF30080214601F8010B01350C4624
:10509000B542F6DB304670BD70B50C4616460025AD
:1050A00004E014F8010BAFF300800135B542F8DBE2
:1050B000304670BD4FF0FF3070474FF400534B60E7
:1050C000002070470120704700207047DFF834D07F
:1050D000FFF784FB0C480D490D4A002302E0D45829
:1050E000C4500433C4188C42F9D30A4A0A4C002332
:1050F00001E013600432A242FBD3FBF71DFCFEF774
:1051000061F97047000003200000002068000020C3
:10511000905A0008680000203C060020FEE72DE9B8
:10512000F04786468C460846089E15467446194642
:10513000002B40F0C2808542B2FA82F245D94AB1D2
:10514000C2F1200300FA02FC2EFA03F3954043EA71
:105150000C0C94404FEA154EA8B2BCFBFEF8230C91
:105160000EFB18CC08FB00F943EA0C43994528D9FB
:10517000EB1808F1FF3704D2994502D9A8F10207CC
:105180002B44A3EB0903A4B2B3FBFEFC0EFB1C33C0
:105190000CFB00F044EA0344A04214D92C190CF192
:1051A000FF3304D2A04202D9ACF102032C44241AEA
:1051B00043EA07401EB1D440002334607360BDE869
:1051C000F0874746DDE76346F1E792BB431B0121C9
:1051D0004FEA154EAFB2B3FBFEFC200C0EFB1C33A6
:1051E0000CFB07F840EA0343984562D9EB180CF131
:1051F000FF3004D2984502D9ACF102002B44A3EB56
:105200000803A4B2B3FBFEFC0EFB1C330CFB07F738
:1052100044EA0344A7424ED92C190CF1FF3304D2BF
:10522000A74202D9ACF102032C44E41B43EA00403C
:10523000C0E7C2F1200320FA03F1954090402EFA16
:1052400003F303434FEA154EAFB2B1FBFEFC0EFB76
:105250001C10190C0CFB07F841EA0041884504FAC0
:1052600002F422D969180CF1FF3004D2884502D922
:10527000ACF102002944A1EB08019BB2B1FBFEFC9A
:105280000EFB1C110CFB07F743EA01439F420ED9AA
:10529000EB180CF1FF3104D29F4202D9ACF10201AC
:1052A0002B44DB1B41EA004192E76046E3E761469D
:1052B000F7E76046A3E76346B7E7834206D916B926
:1052C000002108467BE7C6E900E0F9E7B3FA83F777
:1052D0008FB9834201D3724508D8BEEB020460EB5C
:1052E000030301209C461EB9002168E73846FAE70F
:1052F000C6E9004CF8E7C7F1200CBB4022FA0CF4D9
:105300001C432EFA0CF120FA0CF3B84001434FEA8B
:1053100014490EFA07F5B3FBF9F81FFA84FE09FBEE
:1053200018300B0C08FB0EFA43EA00439A4502FAC8
:1053300007F240D9E31808F1FF3004D29A4502D9A8
:10534000A8F102002344A3EB0A0389B2B3FBF9F8E6
:1053500009FB183308FB0EFE41EA03418E452CD9A8
:10536000611808F1FF3304D28E4502D9A8F1020377
:10537000214443EA0040A0FB0298A1EB0E01414505
:10538000CE46434602D306D14D4504D2B9EB020EB8
:1053900068EB04030138002EA6D0B5EB0E0261EBDA
:1053A000030101FA0CFC22FA07F34CEA0303F9406B
:1053B000C6E9003198E74046C5E74346D9E7000013
:1053C000F8B500BFF8BC08BC9E467047F8B500BFF2
:0853D000F8BC08BC9E467047C2
:1053D800000FC93F000F494000CB9640000FC9405D
:1053E8000053FB4000CB164100ED2F41000F49410F
:1053F8000031624100537B41003A8A4100CB96411B
:10540800005CA34100EDAF41007EBC41000FC941E3
:1054180000A0D5410031E24100C2EE410053FB41FA
:1054280000F20342003A0A420083104200CB1642BF
:1054380000141D42005C234200A5294200ED2F42C2
:1054480000363642007E3C4200C74242000F4942C5
:10545800A2000000F9000000830000006E000000B8
:105468004E00000044000000150000002900000064
:10547800FC0000002700000057000000D1000000D9
:10548800F500000034000000DD000000C00000004E
:10549800DB00000062000000950000009900000099
:1054A8003C000000430000009000000041000000A4
:1054B800FE0000005100000063000000AB00000087
:1054C800DE000000BB000000C50000006100000015
:1054D800B7000000240000006E0000003A00000041
:1054E800420000004D000000D2000000E000000073
:1054F80006000000490000002E000000EA0000003D
:1055080009000000D1000000920000001C0000000B
:10551800FE0000001D000000EB0000001C00000061
:10552800B100000029000000A70000003E000000B4
:10553800E80000008200000035000000F5000000CF
:105548002E000000BB0000004400000084000000A2
:10555800E90000009C000000700000002600000028
:10556800B40000005F0000007E0000004100000061
:105578003900000091000000D6000000390000004A
:10558800830000005300000039000000F400000010
:105598009C000000840000005F0000008B000000F9
:1055A800BD000000F9000000280000003B000000DA
:1055B8001F000000F800000097000000FF00000036
:1055C800DE00000005000000980000000F00000049
:1055D800EF0000002F000000110000008B00000009
:1055E8005A0000000A0000006D0000001F000000C3
:1055F8006D000000360000007E000000CF000000B3
:1056080027000000CB00000009000000B7000000E0
:105618004F000000460000003F0000006600000048
:105628009E0000005F000000EA0000002D0000005E
:105638007500000027000000BA000000C700000045
:10564800EB000000E5000000F10000007B00000016
:105658003D0000000700000039000000F7000000CE
:105668008A0000005200000092000000EA000000DA
:105678006B000000FB0000005F000000B1000000AC
:105688001F0000008D0000005D0000000800000001
:105698005600000003000000300000004600000033
:1056A800FC0000007B0000006B000000AB00000065
:1056B800F0000000CF000000BC0000002000000047
:1056C8009A000000F4000000360000001D000000F1
:1056D800A9000000E3000000910000006100000044
:1056E8005E000000E60000001B000000080000004B
:1056F8006500000099000000850000005F000000C0
:1057080014000000A0000000680000004000000035
:105718008D000000FF000000D8000000800000009D
:105728004D00000073000000270000003100000059
:1057380006000000060000001500000056000000EA
:10574800CA00000073000000A8000000C9000000A3
:1057580060000000E20000007B000000C0000000C4
:105768008C0000006B00000004000000070000002F
:10577800090000000000C93F0000F0390000DA37D6
:105788000000A2330000842E0000502B0000C22726
:105798000000D0220000C41F0000C61B00004417F0
:1057A80052657475726E696E67206C6F77657220CA
:1057B8006D6F746F7220746F20696E697469616CA3
:1057C80020706F736974696F6E3A20252E3166C236
:1057D800B00A00005570706572206D6F746F72208A
:1057E800726573657420706F736974696F6E207366
:1057F800617665643A20252E3166C2B00A00000041
:105808005B55707065725D205245534554204D4F6D
:1058180044453A205461726765743D252E3166C24D
:10582800B02C2043757272656E743D252E3166C2A8
:10583800B02C204572726F723D252E3166C2B00AB7
:10584800000000003D3D3D204D4F4445205452414D
:105858004E534954494F4E20434F4D504C455445A3
:105868003A202564203D3D3D0A00000055707065D2
:1058780072206D6F746F7220656E746572696E67E1
:1058880020737461626C65206272616B65206D6F54
:10589800646500003D3D3D205245515545535449EE
:1058A8004E47204D4F4445204348414E47453A20F6
:1058B8002564203D3D3D0A003D3D3D205357495458
:1058C8004348494E4720544F204E45474154495676
:1058D80045205452414E534954494F4E203D3D3D79
:1058E800000000003D3D3D205452414E534954496B
:1058F8004F4E20544F204E4547415449564520436A
:105908004F4D504C455445203D3D3D003D3D3D20CB
:10591800535749544348494E4720544F20504F53FA
:105928004954495645205452414E534954494F4EC3
:10593800203D3D3D000000003D3D3D205452414E7C
:10594800534954494F4E20544F20504F53495449BE
:10595800564520434F4D504C455445203D3D3D0054
:105968003D3D3D2052455455524E20544F20494EFE
:10597800495449414C20504F534954494F4E2043B4
:105988004F4D504C455445203D3D3D005B4C6F7795
:1059980065725D204D6F64653D25642C20537461EC
:1059A80074653D25642C20416E676C653D252E315C
:1059B80066C2B02C2053706565643D252E31662083
:1059C80052504D0A000000005B4C6F7765725D20F5
:1059D80052455455524E494E473A204375727265A6
:1059E8006E743D252E3166C2B02C205461726765F5
:1059F800743D252E3166C2B02C204572726F723DFF
:105A0800252E3166C2B00A004C6F776572206D6F23
:105A1800746F7220696E697469616C20616E676C5D
:105A2800653A20252E3166C2B00A0000232D302B9E
:105A380020000000686C4C0065666745464700001A
:105A480030313233343536373839414243444546AC
:105A5800000000003031323334353637383961626E
:105A6800636465660000000000000000000000009C
:085A78000102030406070809FE
:085A800090BFFF7F0100000050
:045A8800C52C000821
:045A8C00A12C000841
:105A9000000000000300000068000020100000204B
:105AA0000000000068000020D00000203801002025
:105AB00000000000000000000000000000000000E6
:105AC00000000000000000000000000000000000D6
